:020000040000FA
:100000006002002021030000290300002B030000F0
:100010002D0300002F03000031030000000000004A
:10002000000000000000000000000000330300009A
:100030003503000000000000370300003903000012
:100040003B0300003D0300003F03000041030000AC
:10005000430300004503000047030000490300007C
:100060004B0300004D0300004F030000510300004C
:10007000530300005503000057030000590300001C
:100080005B0300005D0300005F0300003905000012
:1000900063030000650300006703000069030000BC
:1000A0006B0300006D0300006F030000710300008C
:1000B000730300007503000077030000790300005C
:1000C0007B0300007D0300007F030000810300002C
:1000D00083030000850300008703000089030000FC
:1000E0008B0300008D030000000000008F03000060
:1000F00091030000930300009503000097030000A4
:10010000990300009B0300009D0300009F03000073
:100110000000000000000000A1030000A303000095
:10012000A5030000A7030000A9030000AB03000023
:10013000AD030000AF030000B1030000B3030000F3
:1001400000000000000000000000000000000000AF
:10015000B5030000B7030000B9030000BB030000B3
:10016000000000000000000000000000000000008F
:10017000000000000000000000000000000000007F
:10018000000000000000000000000000000000006F
:10019000000000000000000000000000000000005F
:1001A000000000000000000000000000000000004F
:1001B000BD030000BF030000C1030000C303000033
:1001C000C5030000C7030000C9030000CB03000003
:1001D000CD030000CF030000D1030000D3030000D3
:1001E000D5030000D7030000D90300000000000081
:1001F00000000000DB030000DD030000DF0300005F
:10020000E1030000E3030000000000000000000024
:10021000E5030000E7030000E9030000EB03000032
:10022000ED030000EF030000F1030000F303000002
:10023000F5030000F7030000F9030000FB030000D2
:10024000FD030000FF0300000104000003040000A0
:100250000504000007040000090400000B0400006E
:100260000D0400000F0400001104000000F002F86B
:1002700000F02EF80AA090E8000C82448344AAF112
:100280000107DA4501D100F023F8AFF2090EBAE810
:100290000F0013F0010F18BFFB1A43F001031847BA
:1002A000140C0000240C000000230024002500266C
:1002B000103A28BF78C1FBD8520728BF30C148BFC9
:1002C0000B6070471FB500F037FC1FBD10B510BDA7
:1002D00000F0B3F81146FFF7F5FF00F04DF900F01C
:1002E000D1F803B4FFF7F2FF03BC00F0D9F8000027
:1002F0000138FDD170470000EFF3108072B67047EF
:10030000EFF310807047EFF3108062B6704730BF94
:10031000704780F311887047EFF311807047000039
:100320003F4880473F480047FEE7FEE7FEE7FEE71D
:10033000FEE7FEE7FEE7FEE7FEE7FEE7FEE7FEE795
:10034000FEE7FEE7FEE7FEE7FEE7FEE7FEE7FEE785
:10035000FEE7FEE7FEE7FEE7FEE7FEE7FEE7FEE775
:10036000FEE7FEE7FEE7FEE7FEE7FEE7FEE7FEE765
:10037000FEE7FEE7FEE7FEE7FEE7FEE7FEE7FEE755
:10038000FEE7FEE7FEE7FEE7FEE7FEE7FEE7FEE745
:10039000FEE7FEE7FEE7FEE7FEE7FEE7FEE7FEE735
:1003A000FEE7FEE7FEE7FEE7FEE7FEE7FEE7FEE725
:1003B000FEE7FEE7FEE7FEE7FEE7FEE7FEE7FEE715
:1003C000FEE7FEE7FEE7FEE7FEE7FEE7FEE7FEE705
:1003D000FEE7FEE7FEE7FEE7FEE7FEE7FEE7FEE7F5
:1003E000FEE7FEE7FEE7FEE7FEE7FEE7FEE7FEE7E5
:1003F000FEE7FEE7FEE7FEE7FEE7FEE7FEE7FEE7D5
:10040000FEE7FEE7FEE7FEE7FEE7FEE7FEE7FEE7C4
:10041000FEE7000004480549034A054B7047000009
:10042000B10400006D0200006000002060020020A6
:1004300060000020704770477047754600F02CF848
:10044000AE4605006946534620F00700854618B0C1
:1004500020B5FFF7DFFFBDE820404FF000064FF06A
:1004600000074FF000084FF0000BAC46ACE8C009A5
:10047000ACE8C009ACE8C009ACE8C00921F007014C
:100480008D46704710B50446AFF300802046BDE8A6
:100490001040FFF726BF0000004870470000002012
:1004A00001491820ABBEFEE726000200704700009D
:1004B0004EF68852CEF2000213684EF2600043F40A
:1004C0007003136042F61002C4F20F00C0F2807293
:1004D000026143F6D122C0F28E72026040F64252AF
:1004E000C0F29E1202F50053036040F6000340F292
:1004F000425CC0F28013C0F2DE1C03F500510161C2
:100500000CF5006102600361016050F8101C49069F
:100510000CD450F8101C49065CBF50F8101C5FEA60
:10052000416103D450F8101C4906EED54FF0C0715C
:10053000C0F800C001617047B0B545F20004C4F2D4
:10054000020404F53040012100F0E7FA20460E21B4
:100550000F2200F01FF947F25535C0F2CB052846AF
:10056000FFF7C6FE20460E21002200F013F92846B0
:10057000BDE8B040FFF7BCBE40F24050C0F24020A2
:1005800000F0F0F940F20040CFF2000000F07AFAFB
:100590000024C4F203042046322100F087FA00F060
:1005A00037F942082046FF2100F0BDFA232000F071
:1005B000F5F82046012100F0B2FA00F021F92046BA
:1005C000FF2100F0A3FA40F60500CFF2000000F092
:1005D00059FAA4F530400E2100F0CEF8FEE7D0F82D
:1005E000003412F0010F14BF0B438B43C0F80034EA
:1005F00012F0020FD0F8202414BF114322EA0101A7
:10060000C0F82014704700002DE9F04F574ED6F87F
:1006100000C0574FDFF85C810CEA070CC44524D0BA
:100620004FF0000C4FF001094FF0030AC2F34115DF
:1006300009FA0CF40C4211D0D0F8C4BF4FEA4C04B4
:100640000AFA04FE2BEA0E0BC0F8C4BFD0F8C4BFF0
:1006500005FA04F44BEA0404C0F8C44F0CF1010C91
:100660000CF0FF0CBCF1080FE2D3D0F800C512F07B
:10067000010F14BF4CEA010C2CEA010CC0F800C5B4
:10068000D0F804C512F0020F14BF4CEA010C2CEA9A
:10069000010CC0F804C5D0F808C512F0040F14BF4F
:1006A0004CEA010C2CEA010CC0F808C5D0F818C5BA
:1006B00012F0080F14BF4CEA010C2CEA010CC0F830
:1006C00018C5D6F800C00CEA070CC44508D012F0D3
:1006D000100FD0F83C250CBF8A430A43C0F83C25D4
:1006E000D0F80C2513F0010F14BF0A438A43C0F859
:1006F0000C25D0F8102513F0020F14BF0A438A43CB
:10070000C0F81025D0F8142513F0040F14BF0A43C5
:100710008A43C0F81425D0F81C2513F0080F14BF25
:100720000A438A43C0F81C2532683A40424511D03A
:10073000D0F8442513F4007F0CBF8A430A43C0F865
:100740004425D0F8402513F4407F14BF0A438A4360
:10075000C0F84025D0F82825002B0CBF114322EA11
:100760000101C0F82815BDE8F08F000000E00F403F
:100770000000FF700000051030B50C460546082348
:100780000122FFF741FF21462846BDE83040012203
:10079000FFF725BF40F821207047000016490428C4
:1007A00004BF086840F4803018D0052804BF0868EA
:1007B00040F4003012D0062812D00F2815D010288F
:1007C00038BF7047103800F01F01012202FA01F112
:1007D00042090A4850F822000160704708607047DB
:1007E000086840F48020086070474FF0E0200169FD
:1007F00041F002010161704724ED00E0100C00009F
:1008000010B5FFF780FD002818BF012010BD0000C3
:1008100070B44B4D2A6E296F11F0004F14BF01F0D8
:10082000700002F03000202808BF464818D005DCD0
:1008300088B1102808BF444812D009E0302808BF0A
:1008400047F230500CD0702808BF4FF4004007D05A
:1008500070BC002070477C203C4B00EA12101858F6
:100860004FF0FF3311F0004F02D011F4006F06D0AB
:1008700001F0004C02F400645CEA040C36D1D5F8B7
:1008800060C1D5F8644104F01F06C4F30424641C5D
:10089000761C16FB04F46400B0FBF4F0CCF30904FE
:1008A0004443CCF3892C00FB0CF0D5F810C004EBCA
:1008B000902042F480020CF4704CBCF5804F08BFCD
:1008C000234B13D009DCBCF5005F08BF214B0DD0D2
:1008D000BCF5405F08BF204B08E0BCF5E04F08BF07
:1008E0001E4B03D0BCF5104F08BF1D4B12F4800FF8
:1008F00021D011F0004F19D011F0804F09D011F420
:10090000006F0CD001F0004C02F400625CEA0202BD
:1009100005D0C1F3C551491CB0FBF1F00BE040001C
:10092000C1F38651491CB0FBF1F004E0C2F3C3519E
:10093000491CB0FBF1F0834238BF184670BC7047C9
:1009400000E00F4000093D000024F400680C0000A6
:10095000005A620200B4C40480F0FA0240787D01BB
:10096000002D3101434B30B4196E1A6F21F4800110
:1009700041F4006142F4006419661C6721EA000238
:1009800012F0010F14D060F0010211409A159A651F
:100990001966D3F850C0D2021CF4807F08D1521ED1
:1009A00004BF30BC7047D3F850C01CF4807FF6D031
:1009B00021F4FE6100F4FE621143DFF8BCC024F0B4
:1009C000700222F0004200EA0C0C4CEA020200F035
:1009D000080C42EACC0219661A6700F4005C21F4A4
:1009E000005122F400524CEA01014CEA02024FF09D
:1009F000400CC3F858C012F0004F08BF19661A67C0
:100A000018BF196621F00101DFF870C021F0F8610C
:100A100000EA0C0C4CEA010122F0FC5200F0FC5CF4
:100A20004CEA020210F0804F08BF22F0804209D049
:100A3000DFF84CC022F4800200EA0C0C41F4800183
:100A40004CEA020210F4006F08BF4FF400400AD1D4
:100A5000D3F868C11CF0010F01D1401EF8D121F478
:100A6000006122F4006219661A6730BC1020FFF79B
:100A70003FBC000000E00F40300000800100C007D4
:100A800000004040C0F307230749C0B2194401F0F9
:100A90007043C1F3130143EA411141EA800040F081
:100AA000007001220260704700E60F4010B4C26877
:100AB00022F0010222F48072C2600A0E0260114A22
:100AC0001268114B02EA030CACF18054CBB2C1F3B3
:100AD0000722B4F5202407D043F40071416042F4AA
:100AE0000071816010BC70474FF4704C0CEA111417
:100AF000234343F4007343600CEA1121114341F492
:100B00000071EEE700E00F400000FF70C26840F2A5
:100B1000011319401143C1607047416270478269F7
:100B200011438161704711F0FF0F18BF826211F409
:100B30007F4F18BFC2627047F1EE100A4FF6FF7187
:100B4000C0F2C03120EA010040F04070E1EE100A2E
:100B500070470000000700000006000000050000CC
:100B6000000400000003000000020000000100007B
:100B7000000000000000000018ED00E01CED00E0A7
:100B800020ED00E000E400E004E400E008E400E020
:100B90000CE400E010E400E014E400E018E400E0FD
:100BA0001CE400E020E400E024E400E028E400E0AD
:100BB0002CE400E030E400E034E400E038E400E05D
:100BC0003CE400E040E400E044E400E048E400E00D
:100BD0004CE400E050E400E054E400E058E400E0BD
:100BE0005CE400E060E400E064E400E068E400E06D
:100BF0006CE400E070E400E074E400E078E400E01D
:100C00007CE400E080E400E084E400E088E400E0CC
:100C100000E100E004E100E008E100E00CE100E0B8
:100C200010E100E080E100E084E100E088E100E024
:100C30008CE100E090E100E000E200E004E200E08E
:100C400008E200E00CE200E010E200E080E200E0F8
:100C500084E200E088E200E08CE200E090E200E064
:100C600000688909001C4E0E40420F0000201C0045
:100C700080841E0000802500999E360000403800C8
:100C800000093D0000803E0000004B00404B4C003E
:100C900000204E00808D5B0000C05D000080700071
:100CA00000127A0000007D0080969800001BB700BB
:100CB0000080BB00C0E8CE00647ADA000024F400B3
:100CC0000000FA0080A81201002D310100366E01EB
:100CD00040787D014000000000000000000100009D
:100CE0003E0008000000000000010000A00000001D
:100CF0000200000000010000345401000000000068
:100D0000000100002B700600000000000001000040
:100D10002800000000000000000100002700010082
:100D200000000000000100002000000000000000A2
:100D3000000100005000000002000000000100005F
:100D40001AAC000000000000000100001794090028
:100D500000000000000100001698050000000000DF
:100D6000000100001400000000000000000100006D
:100D7000138008000000000000010000A000000037
:100D8000080000000001000010000000000000004A
:100D90000001000028000000020000000001000027
:100DA000400000000400000000010000600000009E
:100DB00000000000000100005D000C0000000000C9
:100DC00000010000500000000000000000010000D1
:100DD0004E000200000000000001000041AC0100D4
:100DE00000000000000100003C00000000000000C6
:100DF000000100003A80090000000000000100002E
:100E00003000000000000000000100002800000089
:100E100000000000000100002700010000000000A9
:100E20000001000023600600000000000001000037
:100E30002160080000000000000100001E0000000A
:100E400000000000000100001DC0040000000000C0
:100E5000000100005000000002000000000100003E
:100E60001800000000000000000100001400000055
:100E7000000000000001000060000000040000000D
:100E8000000100000024F40030003000005A62022B
:100E90009100910000879303D200D20000B4C404F3
:100EA0001301130100E1F50554015401000E270759
:100EB00095019501C40E00000000002060020000B2
:040EC000A802000084
:0400000500000321D3
:00000001FF
